:020000040800F2
:10000000B04A00200D0200087B0C0008EB0A000833
:10001000790C0008190300085D0D000800000000BD
:100020000000000000000000000000007F0C00083D
:100030001B030008000000007D0C0008810C000874
:1000400027020008270200082702000827020008EC
:1000500027020008270200082702000827020008DC
:1000600027020008270200082702000827020008CC
:1000700027020008270200082702000827020008BC
:1000800027020008270200082702000827020008AC
:10009000270200082702000827020008270200089C
:1000A000270200082702000827020008270200088C
:1000B000270200082702000827020008270200087C
:1000C000270200082702000827020008270200086C
:1000D000270200082702000827020008270200085C
:1000E000270200082702000827020008270200084C
:1000F000270200082702000827020008270200083C
:10010000270200082702000827020008270200082B
:10011000270200082702000827020008270200081B
:10012000270200082702000827020008270200080B
:1001300027020008270200082702000827020008FB
:1001400027020008270200082702000827020008EB
:1001500027020008270200082702000827020008DB
:1001600027020008270200082702000827020008CB
:1001700027020008270200082702000800000000EC
:1001800027020008270200082702000827020008AB
:10019000270200082702000827020008270200089B
:1001A000270200082702000827020008270200088B
:1001B000270200082702000827020008270200087B
:1001C000270200082702000800000000270200089C
:1001D000270200082702000827020008270200085B
:1001E000270200082702000827020008270200084B
:1001F0002702000827020008DFF80CD000F07AF888
:1002000000480047A10D0008B04A0020064880477A
:1002100006480047FEE7FEE7FEE7FEE7FEE7FEE7EB
:10022000FEE7FEE7FEE7FEE7090D0008F90100081A
:100230002DE9F05F0546002092469B46884606461B
:10024000814640241BE0284641464746224600F0AE
:1002500041F853465A46C01A914110D311461846E8
:10026000224600F028F82D1A67EB01084F46224677
:100270000120002100F01FF817EB00094E41201E5D
:10028000A4F10104DFDC484631462A464346BDE876
:10029000F09FD2B201E000F8012B491EFBD270475B
:1002A0000022F6E710B513460A4604461946FFF742
:1002B000F0FF204610BD202A04DB203A00FA02F1AC
:1002C000002070479140C2F1200320FA03F3194344
:1002D00090407047202A04DB203A21FA02F00021E6
:1002E000704721FA02F3D040C2F120029140084346
:1002F00019467047064C074D06E0E06840F00103E0
:1003000094E8070098471034AC42F6D3FFF778FF23
:100310004C0E00086C0E0008FEE770472DE9F84F00
:10032000DFF89CE100224FF001084FF0030B4FF083
:100330000F0A00BF0B6808FA02F42340A34271D1F0
:100340004D68022D01D0122D0FD1D5080E69570727
:1003500000EB8505A9462D6AFF0E0AFA07FCBE4090
:1003600025EA0C052E43C9F820600F795500066870
:100370000BFA05FC07F0030726EA0C06AF403743EB
:1003800007604E68012E05D0022E03D0112E01D039
:10039000122E0ED18668CF6826EA0C06AF4037438E
:1003A000876046680F79A643C7F300179740374325
:1003B0004760C4688E6824EA0C04AE402643C660D9
:1003C0004C68E40075D53F4C256845F480452560B0
:1003D000246822F00306950704F4804400943A4C04
:1003E0002D0F2644D6F80848DFF8E0C00AFA05F7D2
:1003F000604524EA070401D100272EE0344FB842BB
:1004000001D1012729E0334FB84201D1022724E06E
:10041000314FB84201D103271FE0304FB84202D11B
:1004200004271AE045E02E4FB84201D1052714E019
:100430002C4FB84201D106270FE02B4FB84201D113
:1004400007270AE0294FB84201D1082705E0284FC5
:10045000B84201D1092700E00A27AF40274375467B
:10046000C6F808784E68DEF80040F60324EA030474
:1004700000D51C43124E2C60361D4D683468AD0308
:1004800024EA030400D51C430D4F346008374D683F
:100490003C68ED0224EA030400D51C43084D3C608F
:1004A0000C354E682C68B60224EA030400D51C43C0
:1004B0002C60521C102AFFF43DAFBDE8F88F0000FD
:1004C000003C01404438024000300140000002403E
:1004D0000004024000080240000C024000100240EC
:1004E0000014024000180240001C0240002002409C
:1004F000002402400148806870470000100000207E
:100500000248816802781144816070471000002021
:10051000032010B500F060F8002000F005F800F0AE
:1005200023F8002010BD000070B50D4D04464FF4B7
:100530007A700C4A29781268B0FBF1F0B2FBF0F047
:1005400000F0C0FA48B9102C07D200222146501EF4
:1005500000F022F800206C6070BD012070BD00002A
:10056000100000200C0000200A4808B5016841F086
:1005700080510160006800F0805000900548001D27
:10058000016841F480410160006800F480400090FF
:1005900008BD0000403802400E4BF0B41B680D4609
:1005A000C3F30223C3F10706042E00D90426191D44
:1005B000072901D2002300E0DB1E012404FA06F122
:1005C0009C40491E2940641E994014402143F0BCC0
:1005D00000F0C5BB0CED00E0064900F0070210B5C5
:1005E0004FF6FF040868044B204040EA02201843FD
:1005F000086010BD0CED00E00000FA052DE9F047A1
:1006000005000F4663D0444E306800F00F00B8423A
:1006100009D2306820F00F0038433060306800F0B5
:100620000F00B84253D128683C4C810712D54007CF
:1006300003D5206840F4E05020602878000703D5F7
:10064000206840F460402060A968206820F0F00035
:10065000084320602878C0072AD0304968680839E4
:10066000012810D00968022810D0890700292EDA45
:10067000216821F0030101432160FFF73BFF804621
:1006800041F288390DE009688903EFE78901EDE758
:10069000FFF730FFA0EB0801494502D90320BDE870
:1006A000F0876868216801F00C01B1EB800FEFD191
:1006B000306800F00F00B8420BD9306820F00F000E
:1006C00038433060306800F00F00B84201D001209C
:1006D000E5E72878400705D5E968206820F4E05070
:1006E000084320602878000706D52869216821F48E
:1006F000604141EAC000206000F016F82168084A15
:10070000C1F30311515CC840064908600020FFF79F
:100710000BFF0020C3E70000003C02400838024005
:100720003C0E00080C000020154910B5154809685A
:1007300011F00C0213D04110042A0FD0082A0ED158
:100740000F4C241F2268236802F03F025B0207D58A
:100750002068C0F38810A0FB010106E0084610BD28
:100760002168C1F38811A1FB00010023FFF760FDA0
:100770002168C1F30141491C4900B0FBF1F010BDF3
:10078000083802400024F4002DE9F84F05004FF02E
:1007900000076ED02878DFF82093A9F1040AC0077B
:1007A000AAF104044CD0D9F800104846C1F38101E5
:1007B000012908D00068C0F3810002280AD1DAF8C4
:1007C0000000400206D52068800339D568680028FB
:1007D000DFD035E06868B0F5803F0BD010B1B0F5E0
:1007E000A02F11D0206820F480302060206820F4F1
:1007F000802002E0206840F480302060686890B17A
:10080000FFF778FE06460AE0206840F4802020606A
:10081000F0E700BFFFF76EFE801B642872D82068E7
:100820008003F7D50CE0FFF765FE064605E000BF44
:10083000FFF760FE801B6428F0D820688003F7D49F
:100840002878800742D5D9F80010484611F00C0FDF
:1008500008D00068C0F3810002280BD1DAF800004C
:10086000400207D42068800718D5E868012800D125
:1008700014E01EE1E8680028206817D040F001006D
:100880002060FFF737FE064605E000BFFFF732FEA7
:10089000801B0228C2D820688007F7D52869216804
:1008A00021F0F80141EAC00020600FE020F00100D3
:1008B0002060FFF71FFE064605E000BFFFF71AFEA7
:1008C000801B02281ED820688007F7D428780007EC
:1008D00029D5794869696C3000298046016812D0B1
:1008E00041F001010160FFF705FE064605E000BF8B
:1008F000FFF700FE801B022804D8D8F8000080070C
:10090000F6D510E089E021F001010160FFF7F2FD6A
:10091000064604E0FFF7EEFD801B02287DD8D8F8DC
:1009200000008007F6D4287840076BD5DFF888816F
:1009300008F13808D8F80000C0000BD4D8F800102F
:1009400041F08051C8F80010D8F80000012700F0ED
:100950008050009059480168C90512D40168834647
:1009600041F480710160FFF7C5FD064605E000BF58
:10097000FFF7C0FD801B64284FD8DBF80000C005DE
:10098000F6D54D4EA868683601280AD008B105286A
:1009900011D0306820F001003060306820F0040091
:1009A00002E0306840F001003060A868A0B1FFF7B5
:1009B000A1FD83460CE0306840F004003060F0E7B1
:1009C000FFF798FDA0EB0B0141F28830814268D817
:1009D00030688007F4D50EE0FFF78CFD834607E012
:1009E000FFF788FDA0EB0B0141F28830814258D817
:1009F00030688007F4D42FB1D8F8001021F080516E
:100A0000C8F80010A869E0B3D9F80010C1F381015B
:100A100002294ED00228206800E042E020F08070D9
:100A2000206003D0FFF766FD05463DE0FFF762FD5D
:100A3000064604E0FFF75EFD801B022831D82068DF
:100A40008001F7D4D5E90921DFF874C0D5E907069C
:100A500095F830304F0895F82C1030430CEB0745D3
:100A600045EA8212104340EA016040EA0370CAF886
:100A70000000206840F080702060FFF73BFD0546D5
:100A800005E014E0FFF736FD401B022809D8206876
:100A90008001F7D50BE000BFFFF72CFD401B0228BB
:100AA00002D90320BDE8F88F20688001F4D400202B
:100AB000F8E70120F6E70000083802400070004027
:100AC0000000FFFF401EB0F1807F10B501D3012070
:100AD00010BD4FF0E02460610F21601700F03FF976
:100AE0000020A0610721216110BDFEE72DE9F04142
:100AF00086B014216846FFF7D3FB4148016841F0F6
:100B000004010160016801F004010591016841F0F0
:100B100080010160016801F080010591016841F0E8
:100B200001010160016801F001010591016841F0D6
:100B300002010160016801F002010591016841F0C4
:100B400008010160016801F008010591016841F0A8
:100B5000400101600068022502AA694600F04000D9
:100B600005903220CDE900050024264803260B27F6
:100B700082E8D000FFF7D2FB8620DFF88C8002AA43
:100B80006946CDE90005404682E8D000FFF7C6FB84
:100B90002803694602AACDE900051C4882E8D00076
:100BA000FFF7BCFB072102943002CDE90361CDE9D8
:100BB000000517486946FFF7B1FB0A2102944FF47C
:100BC000E850CDE90361CDE9000569464046FFF7ED
:100BD000A5FB28026946CDE9000440460294FFF7D0
:100BE0009DFB4FF42050694602AACDE90005094853
:100BF00082E8D000FFF792FB06B0BDE8F08100006C
:100C00003038024000080240000002400004024068
:100C1000000C02400018024010B5134C64682044D8
:100C20002BB1012B0DD0022B0AD1002318E0002399
:100C300004E000BF10F8014BCC545B1C9342F9D385
:100C400010BD002305E000BF30F8024B21F813402F
:100C50005B1C9342F8D310BD10C841F823405B1CC5
:100C60009342F9D310BD000000000020014A10702B
:100C70005160704700000020FEE7704770477047E2
:100C8000FFF73EBC70B594B034216846FFF708FB0F
:100C900014210DA8FFF704FB1948016841F08051A9
:100CA0000160006800F0805012901648016821F43D
:100CB000404141F48041016000680DF1200C0225A3
:100CC00000F4404012900420602206238CE80D00BE
:100CD00069050B90002468460126CDE90651CDE94F
:100CE0000064FFF751FDE9020F20CDE90F41119497
:100CF0000121CDE90D050DA8FFF780FC14B070BDF2
:100D00004038024000700040104A30B51048146866
:100D100000210F4B44F470041460083305680D4A39
:100D20000D4C45F00105056019600368051D134071
:100D3000074A03600C322C600568E305034C25F478
:100D400080250560803C1160236030BD88ED00E0A7
:100D500000380240FFFFF6FE10300024FEE70907CE
:100D600000284FEA116104DB00F1E02080F8001454
:100D7000704700F00F0000F1E02080F8141D70476C
:100D800002E008C8121F08C1002AFAD17047704754
:100D9000002001E001C1121F002AFBD170470000B2
:100DA000FFF7B6FBFFF76EFFFFF7A0FE1B4C01201D
:100DB0004FF0016120600820FFF758FF1849022317
:100DC000A9220020FFF728FF0220164920600920F1
:100DD000FFF74CFF14490223A9220020FFF71CFF54
:100DE0000320124920600A20FFF740FF1049022328
:100DF000A9220020FFF710FF04200E4920600B20DD
:100E0000FFF734FF0C490223A9220020FFF704FF5B
:100E10000521216006202060FDE700000800002079
:100E20001C00002000001408C00200200000180868
:100E30006405002000001C080808002000000000D5
:100E40000000000001020304060708096C0E0008F8
:100E5000000000201C000000800D0008880E000823
:100E60001C000020944A0000900D000800000000C3
:100E700000000000000000000024F4000100000059
:080E800010000000000000005A
:04000005080001F9F5
:00000001FF
